:020000040000FA
:1000000002120DA2029290A2029280AD45AC447FF2
:100010000A7E0012002E12001DA202B322E59120DA
:10002000E2FB2202117D7597A5222202153A8E4627
:100030008F478C488D491217051219A4E54924BF32
:100040009000E9F0E54834FF9000E8F09000E4E526
:1000500046F0A3E547F0439104222202129C121AB3
:100060003853D87853DAFE121A09E4900087F02248
:10007000D2DE2202158D1218D6C290C296C280E43A
:10008000FBFD7F101219F012054274A4F0D2AF12DA
:100090001820D2969000EDE004F070069000ECE09D
:1000A00004F09000ECE0B427E9A3E0B410E4C296B9
:1000B0001200263003091217C58E228F2380067581
:1000C0002201752300E5237004E522640170469047
:1000D00000DFE070061218210202959000ECE47532
:1000E000F001120676FED3E5F09410EE942740025C
:1000F000D296D39000EDE094309000ECE0947550EF
:1001000003020295E4F0A3F09000DFF090009AF073
:10011000C2960202951218209000DFE014602A14A3
:1001200070030202591470030202171470030202D2
:100130003024046003020295E52364AA60030202EE
:10014000959000DF04F0020295E52390009AF0906C
:1001500000DF7402F0E5231207BD0201A0017FA1B8
:10016000018BA501A9A601BDA701C6A801DDA901B2
:10017000CCB001D5B1019DC00295FF0000020C1268
:10018000052FE490008AF07FA1806512055F900042
:10019000EB7408F0E4F52575240902029512055F59
:1001A000E4F52575240202029590008A7401F07F1F
:1001B000A612167A90007974A6F0020295120542F2
:1001C00074A4F00202959000EB7408F09000DF74C4
:1001D00003F00202957FB112057D02029512052FF0
:1001E00090008AE09000EAF090008A7401F07FA904
:1001F00012057D7D307C757F017E001218AD0202F4
:1002000095120586900079EFF0E48005E490009A5D
:10021000F09000DFF0807EE4F525E523F524E52469
:10022000D39400402C12005E9000DF7404F08065CF
:1002300074032525F582E43400F583E523F00525D4
:10024000E525B52402800AE525C39470404775244E
:10025000709000DF7402F0803CE5236455703690A6
:1002600000DFF0C20390009AE02460601B24FC6071
:100270001224FE600E14600B24F760101460042436
:100280001070127FA012198BD2038009900004E035
:10029000049000EBF090009AE01207BD02BEA103AB
:1002A00033A40377A50333A6045DA802BEA9049274
:1002B000B004F4B10434C00458FF000000B0900052
:1002C00086E030E73F7DC87C0012055090009AE040
:1002D0002457600E2408701F1205867FA31216C0D3
:1002E00080159000EAE090008AF0900079E0FF121B
:1002F000167A7FAB12058FE4900086F043DA01D2C4
:10030000030200B0121A0150207DE87C0312055050
:1003100090009AE02457600C240860030200B07F2C
:10032000A20204E67FAA0204E61205694003020065
:10033000B0802E900086E030E71F90009AE0245AAB
:10034000600F240260030205007FA41216C002059C
:10035000007FA612058F0205001205694003020006
:10036000B0121805C006C0071218149200D007D0AA
:100370000612080F0200B09000DFE060030200B038
:100380001218287003020427240560030200B0122B
:100390000573900005E0FFA3E090008CCFF0A3EF81
:1003A000F0900007E0FFA3E090008ECFF0A3EFF005
:1003B000900003E0FFA3E0900090CFF0A3EFF09057
:1003C0001ACCE493FD1217FB752DFF8A2EF52F90A2
:1003D0001ACFE493F5301217FB7531FF8A32F533EB
:1003E000901AD2E493F5341217FB7535FF8A36F56F
:1003F00037901AD5E493F5381217FB7539FF8A3A0E
:10040000F53B901AD8E493F53CA3E493F53DA3E4BF
:100410009324FF9200753E00753F097B017A0079B5
:100420008C120FC90200B09000EBE07063C2807FB5
:10043000A00204E69000DFE060030200B090000339
:10044000E0FCA3E0FD7F017E001218ADD296120001
:100450001DC2967FA00204E67F030204E69000DF3F
:10046000E060030200B0121828601924056003023E
:1004700000B0120573900003E0FF7C007D041210B1
:10048000AA0200B09000EBE07006C2807FA0805608
:10049000805A9000DFE060030200B0121828603C30
:1004A000240560030200B09000EBE014F012005E3F
:1004B000900003E0FF25E02405F582E43400AD82DE
:1004C000FC900005E0F97A007B00EF25E0FFE524D1
:1004D00024FEC39FF52B1215E00200B09000EBE064
:1004E000700AC2807FA012197E0200B0E4900087DB
:1004F000F00200B0900086E030E7107FB112139C4C
:10050000E4900086F043DA010200B07B017A0079C2
:10051000EE12174940030200B0121805C006C007CA
:100520001218149200D007D006120E200200B07DDF
:10053000327C007F017E001218ADD29612001DC2DF
:100540009622E490008AF07FA412167A9000792215
:100550007F017E001218ADD29612001DC2962212A3
:10056000005E9000DF7404F0227B017A0079EE12C5
:100570001749229000EBE014F012005E2212167A66
:10058000900079EFF022900079E0FF12167A229025
:100590000086E0547FFD12162E22BB010CE5822955
:1005A000F582E5833AF583E0225006E92582F8E6F4
:1005B00022BBFE06E92582F8E222E58229F582E5E2
:1005C000833AF583E49322BB010689828A83F02271
:1005D0005002F722BBFE01F322EF8DF0A4A8F0CF6A
:1005E0008CF0A428CE8DF0A42EFE22BC000BBE0001
:1005F00029EF8DF084FFADF022E4CCF875F008EF20
:100600002FFFEE33FEEC33FCEE9DEC984005FCEE44
:100610009DFE0FD5F0E9E4CEFD22EDF8F5F0EE8475
:1006200020D21CFEADF075F008EF2FFFED33FD403A
:1006300007985006D5F0F222C398FD0FD5F0EA22B4
:10064000C2D5EC30E709B2D5E4C39DFDE49CFCEED5
:1006500030E715B2D5E4C39FFFE49EFE1205EBC35D
:10066000E49DFDE49CFC80031205EB30D507C3E458
:100670009FFFE49EFE22C5F0F8A3E028F0C5F0F845
:10068000E582158270021583E038F022BB0110E587
:100690008229F582E5833AF583E0F5F0A3E0225064
:1006A00009E92582F886F008E622BBFE0AE92582E0
:1006B000F8E2F5F008E222E5832AF583E993F5F004
:1006C000A3E99322BB010A89828A83F0E5F0A3F0B3
:1006D000225006F709A7F01922BBFE06F3E5F00940
:1006E000F3192275F008758200EF2FFFEE33FECD6F
:1006F00033CDCC33CCC58233C5829BED9AEC99E5E2
:100700008298400CF582EE9BFEED9AFDEC99FC0F71
:10071000D5F0D6E4CEFBE4CDFAE4CCF9A88222B839
:1007200000C1B90059BA002DEC8BF084CFCECDFCBE
:10073000E5F0CBF97818EF2FFFEE33FEED33FDEC4B
:1007400033FCEB33FB10D703994004EB99FB0FD834
:10075000E5E4F9FA227818EF2FFFEE33FEED33FDD2
:10076000EC33FCC933C910D7059BE99A4007EC9BD1
:10077000FCE99AF90FD8E0E4C9FAE4CCFB2275F061
:1007800010EF2FFFEE33FEED33FDCC33CCC833C872
:1007900010D7079BEC9AE899400AED9BFDEC9AFC78
:1007A000E899F80FD5F0DAE4CDFBE4CCFAE4C8F927
:1007B00022A42582F582E5F03583F58322D083D00B
:1007C00082F8E4937012740193700DA3A393F874EC
:1007D0000193F5828883E4737402936860EFA3A3A6
:1007E000A380DFEF4E6012EF60010EEDBB010B89BD
:1007F000828A83F0A3DFFCDEFA2289F05007F70932
:10080000DFFCA9F022BBFEFCF309DFFCA9F0228E7D
:10081000268F27E4F528C3E5279464E52694005045
:100820001EE4F528E528120C81F8E4F608F6E52820
:10083000120CA5E4F60528E528B409E8C290229038
:10084000008AE01470030208F9046003020A537876
:1008500086E6C4540F704CD3E5279494E526941192
:100860005003020A53300003020A53120CAD18F66B
:10087000ED08F618120CAD18F6ED08F6120D73AE71
:1008800026FF7C007D1F1205EB90008CEEF0A3EF9D
:10089000F07C007D031205D9A3EEF0A3EFF0A312C4
:1008A0000D76227886E6C4540F64026003020A5370
:1008B000A20033FF901BF2E4936FC36001D3920157
:1008C00085262A85272B752C01752D00752E8C9079
:1008D0001BE8120C97120E0C901BEAE493F532A35E
:1008E000120C97120E16901BEDE493F536901BF147
:1008F000E493F537E4FF020A54E4F528E528120CE6
:1009000081F9E7C4540F7044120CC3120D3FD39405
:10091000014011120CC3120D4BFFA200E4336F70A3
:1009200003020A47120C88F5828E83C083C08212AC
:100930000CC3120DC3120C95F5828E83E493D08202
:10094000D08312148E4003020A47805CE528120C03
:1009500081F9E7C4540F7E00540FFF120CC3120D2F
:100960003FF9FDC3EF9DEE94005067120CC324E2E3
:10097000F582E4341BF583E493FC740193F5828CD7
:1009800083C083C082120CC3120DC3F583E493FCB1
:100990007401932FF582EE3CF583E493D082D083EB
:1009A00012148E501A120D73E528120C81F8120CD5
:1009B000ADFEEDFFE528120C81120DFB020A47E5A2
:1009C00028120C81F8E4F608F6E528120CA5E4F6E6
:1009D0008075E528120C81F8E6FEEEC4540FFFE99D
:1009E0006F7001E47061120CC3120D4BFFA200E4A2
:1009F000336FC36001D3920185262A85272B120C01
:100A000088AA06752CFF8A2DF52E120CC324E8F552
:100A100082E4341B120C95120E0C120CC3120DCB77
:100A2000F532120CC324EBF582E4341B120C951240
:100A30000E16120CC3120DD7F536120CC3120DE3AD
:100A4000F537AF28120A540528E528C39409500346
:100A50000208FC228F29E4F538EF120CA5E6701A83
:100A600090008B7408F07E007F707D007B017A001F
:100A700079031207E3E490007AF0AB2CAA2DA92E9B
:100A8000C003C002C001120C7FF9E7AB2FAA30A946
:100A900031120D2BD001D002D003120D7E50401226
:100AA0000C7FF9E77E00540FFF7003200109D3EF9C
:100AB0009400EE94004030EF4E700A900077E52AE3
:100AC000F0A3E52BF0120C7F120DAF2401FFEFFE17
:100AD000EC54F04EFEEDFF120C7F120DFB8008125D
:100AE0000C7FF874F056F6AB2CAA2DA92EC003C0CB
:100AF00002C001120C7F120D0FAB33AA34A93512BC
:100B00000D2BD001D002D003120D7E505F120C7F4E
:100B1000120D0F7E00540FFF7003200109D3EF94D4
:100B200000EE9400404AEF4E700A900088E52AF0EB
:100B3000A3E52BF0120C7F120DAFC4F854F0C86877
:100B4000FEEDC4540F482401FFE43EFEEFC4F85408
:100B50000FC868FFEEC454F048FEED540FFDEE4C94
:100B6000FEEF4DFF120C7F120DFB8004120D95F667
:100B7000120C7F120DAFFB7A00540F7019ECC4F801
:100B800054F0C8EDC4540F48540F700A120C7D1273
:100B90000C9EE4F6C322120CA3E5371466700375AD
:100BA00038017E00EB540FFFE532120E02B5071933
:100BB000EEB50415D290120C7FF874F056120CA208
:100BC0000690008BE014F08042120C7F120D0F543F
:100BD0000FFFE536120E026F7001EC702ED29012EC
:100BE0000D95120CA20690008BE014F0120CF5C0CB
:100BF00083C082E0FF90008BE0FE7401A8060880AD
:100C000002C333D8FC4FD082D083F090008BE070C9
:100C100015120CA3120CF5120D5AFF121943EFF026
:100C200090008B7408F0120CA3E6C39537402F1286
:100C300019F95005E4900085F0120D576018121A4A
:100C4000097D207C037F017E00121884120DB7A35A
:100C5000E529F04480F0120C7D120C9EE4F6D322BC
:100C6000A2019202AB29AA2AA92B75F002EFA4F5E2
:100C70008285F08312068CF54585F04422C290E50A
:100C80002975F003A4248622E52875F011A424E236
:100C9000F582E4341BF583E493FE74019322F8E4B7
:100CA000F608F6E52975F003A42488F822E6FC0886
:100CB000E6FDECC4540F2401FFEFC454F0FEEC54E5
:100CC0000F4E22E52875F011A422A200E433C433AC
:100CD000333354804526FFE527900074CFF0A3EF0F
:100CE000F0E490007BF02285408275830012059A23
:100CF000FFC3952C22E624FFFFE434FFFE7C007D39
:100D00000812064074032FF58274003EF58322F921
:100D1000E7C4F854F0C809E7C4540F4822E52E256B
:100D2000E0248CF582E43400F58322540FF58275BB
:100D3000830012059A75F002A4F58285F0832224BF
:100D4000E7F582E4341BF583E4932224F2F582E490
:100D5000341BF583E49322900085E0FF90007AE055
:100D60006F22A2009202AB26AA27A928EF5407758A
:100D7000F00222900001E526F0A3E527F0221206FA
:100D80008CFDACF0AF2BAE2A02149F2403F582E455
:100D90003400F58322E52975F003A42487F8740F45
:100DA0005622E52A252CF582E43529F583E022F840
:100DB000E6FC08E6FDEC2290007AE0900085F05316
:100DC000DAFE2224E5F582E4341B2224EAF582E4EB
:100DD000341BF583E4932224EDF582E4341BF58380
:100DE000E4932224F1F582E4341BF583E493222575
:100DF000E0247DF582E43400F58322F8A60608A6F7
:100E00000722C39538FDE49400FCED22AA06752F55
:100E1000FF8A30F53122AA067533FF8A34F5352270
:100E20008E268F27C3E5279464E52694005003029D
:100E30000FC3900087E024FE6025147003020EC9E2
:100E400024036003020FC8C290AF27AE26121970A8
:100E50004003020FC8120CCA9000877402F022A24D
:100E6000009201AF27AE2612185A503290007BE054
:100E700094044023D290E4900000F0900073F0902E
:100E8000008BF090007CF090007AF0900003F090DE
:100E900000877403F08025E4900087F0801E9000A6
:100EA00074E0547FFEA3E0FFD3E5279FE5269E4034
:100EB00005120CCA800690007BE004F090007BE0F5
:100EC000F46003020FC8020FC490007CE004F07BC2
:100ED000007A007928AF27AE26121416402390001E
:100EE00000E0FF120D1FE526F0A3E527F08F289004
:100EF0000000E004F0E0D394074006E4F09000879F
:100F0000F090008BE0B40422A200E433C433333306
:100F10005480FFE528C454F04FFF900073E0120D99
:100F20008BEFF0E490008BF08042900073E0FF12B2
:100F30000D8BE0FEA200E43333333354F84528FD33
:100F4000EE4DF074032F120D8D120D5AFF1219433E
:100F5000EFF0900073E004F090008B7404F09000C8
:100F600073E0D394704005E4900087F090007CE03B
:100F7000FF90007BE06F70501219F95005E490006B
:100F800085F0120D57603A121A097D207C037F010B
:100F90007E00121884120DB7900003E0FD900074DB
:100FA000E05480FF900000E0C454F04FFFED4F90FC
:100FB0000003F0900074E0547FF0900086E04480DD
:100FC000F0C290E4900087F0228B298A2A892B8D29
:100FD0002CD3300001C39201E4F542754380F54003
:100FE000E540C39530501BAB2DAA2EA92F120CE75C
:100FF000500A120C6012000392018002B2010540F7
:1010000080DEE4F540E540C3953D5070E53F254264
:10101000F582E4353EF583E055437027F541E5411F
:10102000C395345046AB31AA32A933854182120CA4
:10103000EA500A120C6012000392018002B201050C
:101040004180DBE4F541E541C39538501EAB35AA3C
:1010500036A937854182120CEA500A120C60120040
:101060000392018002B201054180DBE543C313F521
:10107000437005054275438005408089E4F540E5ED
:1010800040C3953C501BAB39AA3AA93B120CE75020
:101090000A120C6012000392018002B20105408026
:1010A000DEC2909000877405F0228F268C278D2851
:1010B000EF120C8AAA06F97BFFC003C002C001EF41
:1010C00075F011A424E4F582E4341BF583E493FD68
:1010D000EF75F011A4120DC3120C95AA068B2D8A80
:1010E0002EF52FEF75F011A4120D3FF530EF75F0CE
:1010F00011A424E8F582E4341B120C95AA068B3166
:101100008A32F533EF75F011A4120DCBF534EF757B
:10111000F011A424EBF582E4341B120C95AA068B83
:10112000358A36F537EF75F011A4120DD7F538EF83
:1011300075F011A424EEF582E4341B120C95AA0676
:101140008B398A3AF53BEF75F011A424F0F582E46F
:10115000341BF583E493F53CEF75F011A4120DE315
:10116000F53DEF75F011A4120D4B24FF9200852779
:101170003E85283FD001D002D003020FC9C0E0C095
:10118000F0C083C082C0D075D000C000C001C002D2
:10119000C003C004C005C006C007E5985403F54A63
:1011A000F45298E54A30E017121A419000DE121806
:1011B0004FEFF09000DEE004F0E0B44002E4F0E530
:1011C0004A30E12E9000E1E0D39400401A9000DD17
:1011D000E0244BF8E6FF121A3E9000DDE004F090A8
:1011E00000E1E014F08002D2049000DDE0B42002BF
:1011F000E4F0D007D006D005D004D003D002D0014F
:10120000D000D0D0D082D083D0F0D0E03212005ABB
:10121000787FE4F6D8FD7581BB021257020076E4B0
:1012200093A3F8E493A34003F68001F208DFF4806F
:1012300029E493A3F85407240CC8C333C4540F44BF
:1012400020C8834004F456800146F6DFE4800B0199
:1012500002040810204080901321E47E019360BCBA
:10126000A3FF543F30E509541FFEE493A360010E31
:10127000CF54C025E060A840B8E493A3FAE493A358
:10128000F8E493A3C8C582C8CAC583CAF0A3C8C579
:1012900082C8CAC583CADFE9DEE780BEC0E0C0F00D
:1012A000C083C082C0D075D000C000C001C002C0E1
:1012B00003C004C005C006C007E5D85487F521F473
:1012C00052D8E5F730E508E5F730E603121A48533F
:1012D000F7DFE52130E708E5D930E003121A47E5EA
:1012E0002130E008E5DA30E003121789E52130E12A
:1012F00008E5DB30E003121A49E52130E208E5DCBD
:1013000030E003121A4AD007D006D005D004D0032B
:10131000D002D001D000D0D0D082D083D0F0D0E0A5
:10132000324200E600004200E200004200E8000015
:101330004200E40000C18341008600410087004173
:10134000008A00410079004200010000420088004C
:1013500000420077000041008B0041007300410013
:10136000850041007A004100000048007D00000037
:101370000000000000410076004100DE004100E076
:10138000004100DC004100DD004100E1004100DBE4
:1013900000C1044100DF0041009A0000AE07E4F5FF
:1013A00026121920900000E004FF12192712140FD2
:1013B000900000E0FFE526C39F5014121841E0544E
:1013C0007FFF12192712184112183B052680E19061
:1013D0000074E0547FFF12192790007412183B121A
:1013E000140FE4F526900073E0FFE526C39F501725
:1013F0007403252612182F0526E526541F70E612C1
:101400001A3B121A3480DE7F55121927021A3B123A
:101410001A3B121A34228E298F2A8B2B8A2C892D63
:10142000E4F52E900000E0FFE52EC39F505EE52915
:10143000C4F854F0C868FCE52AC4540F48FDE52AF6
:10144000AE297802CEC313CE13D8F92DFFEE3CABF4
:1014500007FA120D1DE0FEA3E0FFC39BEE9A5002B7
:101460008004AE02AF03AA06AB07120D1DE0FCA379
:10147000E0FDAF2AAE291218FD500DAB2BAA2CA906
:101480002DE52E1205C7D322052E8097C32275F0B5
:10149000021207B1E493FC740193FDAF27AE268FCF
:1014A000828E83AF05AE041219BCAB07AA06D3EB3C
:1014B00094F4EA940140067E017FF48004AE02AF0A
:1014C00003AA06AB07C3EB9464EA940050067E00BF
:1014D0007F648004AE02AF03AA06AB07AF82AE837F
:1014E0001218FD22900076E0FDC4540F2401FBE4A5
:1014F00033FAED540FF96B7001EA603DE97010E0CA
:10150000C4540F2401FDE433FCED64044C602A90C4
:101510000076E0C4540FFD540F120DEFEEF0A3EF70
:10152000F0ED04C454F049900076F0E0FFC4540F8D
:10153000C394044004EF540FF022C0E0C083C08283
:10154000C0D075D000C004C005C006C00753C87F16
:101550009000E6E0FEA3E0FF4E700353C8FB90004E
:10156000E212173E50099000E6E4F0A3F0800DC3AC
:101570009000E7E09DF09000E6E09CF0D007D006F8
:10158000D005D004D0D0D082D083D0E032C0E0C02B
:1015900083C082C0D075D000C004C005C006C0079B
:1015A00053917F9000E8E0FEA3E0FF4E700353915B
:1015B000FB9000E412173E50099000E8E4F0A3F01D
:1015C000800DC39000E9E09DF09000E8E09CF0D031
:1015D00007D006D005D004D0D0D082D083D0E0325E
:1015E0008B268A2789288C298D2AD200E4F52CE5C0
:1015F0002CC3952B502F120DA2C4540FFF640F6003
:101600000B120D62120C6E1200039200120DA2FF5B
:10161000540F640F600B120D62120C6E12000392D5
:1016200000052C80CAC2909000877405F022AE0598
:10163000AD07E4FCFB7FAA121927AF05121927EEAC
:1016400075F011A42409F582E4341DF583E493FFB9
:10165000ECC39F500774082CFC0B80F4EB04FF12C2
:101660001922E4FCECC39B500974032C12182F0CB4
:1016700080F27F55121927021A3B8F26900079E0DD
:10168000F5277E007F1B7D007B007A00798612079C
:10169000E37F0B121A4443DA011200707D0A7C00CA
:1016A0007F017E001218AD12001DE4900087F090BB
:1016B0000086F090009AE526F0900079F0AF27229E
:1016C000AE07E4FDF526121920900001E0FF121983
:1016D0002790000112183B900077E0FF1219279025
:1016E000007712183B900088E0FF121927900088BD
:1016F00012183B74032D12182F0DBD03F67F5512DF
:101700001927021A3BAB07AA06E4F9F87F407E428C
:101710007D0FFC12071FA804A905AA06AB077F20AE
:101720007ED77D757C0112071FC3E49FFFE49EFEF8
:1017300022AB07AA06E4F9F87FE87E03FD22E0FC6D
:10174000A3E0FDC3EF9DEE9C22ADDA900076E0FFB2
:10175000C4540FFEEF540FFFB50602C32253DAFE46
:10176000EF120DEFE0FFA3E0CF8FF01206C4900060
:1017700076E0FF54F0FEEF044EF0540FC3940440A3
:1017800004E054F0F08DDAD322AFFBAEFC7C007D98
:101790000A1205D9AD07AC06AFD953D9BFE4F5FAA3
:1017A000F5F98FD9C3EC948050157F002093027F08
:1017B00001EFC433333354804CFEEDFF0214E4E4F4
:1017C000900076F0229000DEE0FF9000DCE0B507AC
:1017D000057E017F00229000DC12184FE0FD7C00A6
:1017E0009000DCE004F0E0B44002E4F09000DBE0C4
:1017F000FEEE4204E4F0AE04AF0522A3E493FE74CF
:101800000193AA06229000EEE0FCA3E0FDEC547FD9
:10181000FEAF0522EC5480C4131313540124FF229D
:10182000E49000ECF0A3F022900087E024FB22F586
:1018300082E43400F583E0FF021927A3E0FF0219D8
:1018400027E52625E0248CF582E43400F58322E0A8
:10185000249BF582E43400F58322AD07AC069000AA
:1018600074E0FAA3E0FBEA5480C41313135401702C
:1018700005300102C322AF05AE04EA547FFCAD037C
:1018800012149F228E398F3A8C3B8D3C12173112E5
:1018900017121219989000E6E53BF0A3E53CF09092
:1018A00000E2E539F0A3E53AF043C804228E288F20
:1018B000298C2A8D2B1217311217121219A490009D
:1018C000E8E52AF0A3E52BF09000E4E528F0A3E595
:1018D00029F04391042212002A121A10121A171228
:1018E00019C8121A2C12195A1219E61219D2121901
:1018F000DC1219B0121A1E121A30021A25C3ED9BFF
:10190000F582EC9AF583C3E5829FE5839E500FED47
:101910002BFDEC3AFCC3EF9DEE9C50028001C322EC
:101920007FAA121927AF06C2049000E0E0B420029B
:10193000E4F09000E0E0244BF8A607E004F0A3E018
:1019400004F0227E1DE4FDEF30E70625E06EFF8007
:1019500004EF25E0FF0DBD08EE22AF885388AF7578
:101960008CA0758DCBEF5440FEEF54104E42882270
:10197000C3EF942CEE94014003D38001C3221219CB
:101980008BD203900079E0FF02167AAE071219207D
:101990007F55121927021A3BAD07AC06ECF5CBAF09
:1019A000058FCA22AD07AC06ECF593AF058F9222E6
:1019B000C2DE75D90575F9FF75960122EF7802CE62
:1019C000C313CE13D8F9FF2275E34075E10175E228
:1019D0000122E59154045391FB429122758E547576
:1019E000892243885022E5C8540453C8FB42C822C8
:1019F00053984FEB4F4DF59822E5C8C320E201D331
:101A000022E591C320E201D32253C8FB53C87F22B1
:101A100075A41175D4CF2275A54175D5772253F7DA
:101A20007F75DA302275E69075A8B022E4F5A92218
:101A3000439810223004FD22C2DE22D299228F99CF
:101A400022AF99228F8C2222222222015E041A2A9E
:101A500062000200010100017202E412C005DC0212
:101A60000300010100017C044C0BB8232802030091
:101A700001010001F403E805DC733C0302010001ED
:101A8000019004B00BB81C5202030001010001C216
:101A90000384286E02000001010000D201A41D8809
:101AA000020000010100028A1E82071C0F8C000147
:101AB00000020003012C0A00008C047E27F60001BE
:101AC000000300020002000300041A4B031A510233
:101AD0001A53021A550200000018001A57041A5F20
:101AE000021A61021A630200000028001A65041A33
:101AF0006D021A6F021A710200000018001A7304B6
:101B00001A7B011A7C021A7E0200000047001A802C
:101B1000041A88021A8A021A8C0200000018001A9D
:101B20008E031A94021A96021A98020000001801F5
:101B30001A9A031AA0021AA2021AA4020000000CA8
:101B4000011AA6041AAE021AB0021AB2020000006C
:101B500028001AB4051ABE021AC0041AC4041AC80E
:101B6000022000015E041A2A620002000101000145
:101B70007202E412C005DC020300010100017C04D2
:101B80004C0BB8232802030001010001F403E8050F
:101B9000DC733C0302010001019004B00BB81C523D
:101BA00002030001010001C20384286E020000014B
:101BB000010000D201A41D88020000010100028A78
:101BC0001E82071C0F8C000100020003012C0A007A
:101BD000008C047E27F600010003000200020003CF
:101BE00000041B63031B69021B6B021B6D020000D8
:101BF0000018001B6F041B77021B79021B7B02007D
:101C0000000028001B7D041B85021B87021B890224
:101C100000000018001B8B041B93011B94021B96F1
:101C20000200000047001B98041BA0021BA2021B1D
:101C3000A40200000018001BA6031BAC021BAE028E
:101C40001BB00200000018011BB2031BB8021BBA34
:101C5000021BBC020000000C011BBE041BC6021BC1
:101C6000C8021BCA0200000028001BCC051BD602BC
:101C70001BD8041BDC041BE0022000015E041A2AAE
:101C800062000200010100017202E412C005DC02E0
:101C90000300010100017C044C0BB823280203005F
:101CA00001010001F403E805DC733C0302010001BB
:101CB000019004B00BB81C5202030001010001C2E4
:101CC0000384286E02000001010000D201A41D88D7
:101CD000020000010100028A1E82071C0F8C000115
:101CE00000020003012C0A00008C047E27F600018C
:101CF000000300020002000300041C7B031C81029D
:101D00001C83021C850200000018001C87041C8F25
:101D1000021C91021C930200000028001C95041C68
:101D20009D021C9F021CA10200000018001CA304BD
:101D30001CAB011CAC021CAE0200000047001CB032
:101D4000041CB8021CBA021CBC0200000018001CD3
:101D5000BE031CC4021CC6021CC8020000001801FD
:101D60001CCA031CD0021CD2021CD4020000000CAE
:101D7000011CD6041CDE021CE0021CE20200000072
:101D800028001CE4051CEE021CF0041CF4041CF8E2
:031D90000220002E
:00000001FF
